:100000000C942A000C9447000C9447000C94470071
:100010000C9447000C9447000C946D000C9447001E
:100020000C9447000C9447000C9447000C94470034
:100030000C9447000C94F4000C9447000C94470077
:100040000C9447000C9447000C9447000C94470014
:100050000C94470011241FBECFE5D4E0DEBFCDBF16
:1000600010E0A0E6B0E0E0E7F5E002C005900D92F8
:10007000A638B107D9F710E0A6E8B0E001C01D929C
:10008000AC38B107E1F70E941A010C94B6020C9447
:100090000000DF93CF930F92CDB7DEB7809187003A
:1000A0009091880096958795929582958F70892773
:1000B0009F7089278058898380918700909188005C
:1000C0008F71805C809386008CE290E02981FC0136
:1000D00020830F90CF91DF9108951F920F920FB65A
:1000E0000F9211242F933F934F935F936F937F93BE
:1000F0008F939F93AF93BF93EF93FF93DF93CF9330
:10010000CDB7DEB7A8959091890081E0953608F4C7
:1001100080E09F5F90938900882321F00E9449002E
:100120001092890080918A0090918B0021E031E04B
:10013000843F930709F020E0019690938B00809311
:100140008A00222381F080917F009091800020918D
:100150007F0030918000F901308120918100232BB4
:10016000FC0120832EC080918A0090918B00F3E0E7
:10017000883E9F0730F110928B0010928A00809188
:100180007F009091800020917F0030918000F901E4
:100190002081322F2091810020952323FC01208390
:1001A00080918200909183002091820030918300A1
:1001B000F9012081322F2091840020952323FC0116
:1001C0002083CF91DF91FF91EF91BF91AF919F91EC
:1001D0008F917F916F915F914F913F912F910F90F0
:1001E0000FBE0F901F9018951F920F920FB60F928F
:1001F00011242F938F939F93EF93FF93DF93CF93CC
:10020000CDB7DEB780918600882341F08CE290E084
:1002100020918600FC01208310928600CF91DF910F
:10022000FF91EF919F918F912F910F900FBE0F90A3
:100230001F901895DF93CF9300D000D0CDB7DEB7D5
:1002400019825FC08981282F30E0C901880F991F6A
:10025000820F931F805A9F4FFC0180819181AC01D6
:10026000415050408981282F30E0C901880F991FE3
:10027000820F931F805A9F4FFC01808191810197CB
:10028000FC018081682F8981282F30E0C901880F07
:10029000991F820F931F8E599F4FFC01808180957B
:1002A0008623FA0180838981282F30E0C901880FD5
:1002B000991F820F931F805A9F4FFC0140815181EB
:1002C0008981282F30E0C901880F991F820F931F61
:1002D000805A9F4FFC0180819181FC01608189815E
:1002E000282F30E0C901880F991F820F931F8E5964
:1002F0009F4FFC018081862BFA01808389818F5F6B
:10030000898380917E009981981708F49BCF198288
:100310005FC08981282F30E0C901880F991F820FA3
:10032000931F81589F4FFC0180819181AC01415006
:1003300050408981282F30E0C901880F991F820F12
:10034000931F81589F4FFC01808191810197FC018F
:1003500060818981282F30E0C901880F991F820FA1
:10036000931F8F579F4FFC018081862BFA0180835A
:100370008981282F30E0C901880F991F820F931FB0
:1003800081589F4FFC01408151818981282F30E0A5
:10039000C901880F991F820F931F81589F4FFC013D
:1003A00080819181FC018081682F8981282F30E034
:1003B000C901880F991F820F931F8F579F4FFC0110
:1003C000808180958623FA01808389818F5F89836C
:1003D000809185009981981708F49BCF81E390E084
:1003E00021E330E0F90120812460FC01208382E3D5
:1003F00090E022E330E0F90120812460FC012083B9
:100400008FE490E0FC0110828EE490E02CE0FC018F
:1004100020838DE490E0FC0110828CE490E0FC01EC
:10042000108287E490E0FC01108286E490E0FC01F9
:1004300010828BE490E0FC0110828AE490E02BE2D1
:10044000FC01208389E490E0FC01108288E490E0C4
:10045000FC01108289E590E020E1FC0120838AE222
:1004600090E028E0FC01208380E490E026E0FC019D
:10047000208380E490E0FC01108289E290E027E490
:10048000FC0120838AE290E02AE230E0F901208139
:100490002064FC01208388E190E02FE00FB6F894FF
:1004A000A89581BD0FBE21BD789401C000001B82BC
:1004B0001A8280917E0081508C838C81282F30E0BD
:1004C000C901880F991F820F931F805A9F4FFC010B
:1004D000808191810297FC0140818C81282F30E03E
:1004E000C901880F991F820F931F8E599F4FFC01DE
:1004F00080818423882381F48C81282F30E081E05F
:1005000090E002C0880F991F2A95E2F72A813B816B
:10051000822B932B9B838A8381E09C81992309F40E
:1005200080E09C8191509C83882339F6209187003C
:10053000309188008A819B812817390709F4B6CF4A
:100540008A819B81909388008093870080918200AC
:10055000909183002091820030918300F9013081D5
:1005600020918400232BFC012083A1CFF894FFCF9E
:1005700035000235000435000835001035002035FF
:1005800000403500803B00803B00403B00200A38A3
:060590000008380004021F
:00000001FF
